:020000040800F2
:10000000B8070020010100089F250008BD1C00085A
:100010009D250008190200080D2E000800000000B0
:10002000000000000000000000000000DB280008C5
:100030005F02000800000000D9280008DD28000841
:100040001B0100081B0100081B0100081B01000820
:100050001B0100081B0100081B0100081B01000810
:100060001B0100081B0100081B0100081B01000800
:100070001B0100081B0100081D02000829020008DE
:100080001B0100081B0100081B0100081B010008E0
:100090001B0100081B0100081B0100081B010008D0
:1000A0001B0100081B0100081B0100081B010008C0
:1000B0001B0100081B0100081B0100081B010008B0
:1000C0001B0100081B0100081B0100081B010008A0
:1000D0001B010008C92D00081B010008012E0008A3
:1000E0001B0100081B0100081B010008DFF80CD0F1
:1000F00000F070F80048004775300008B80700208D
:100100000648804706480047FEE7FEE7FEE7FEE7B1
:10011000FEE7FEE7FEE7FEE7FEE7FEE7212900082F
:10012000ED000008D2B201E000F8012B491EFBD21D
:1001300070470022F6E710B513460A4604461946F2
:10014000FFF7F0FF204610BD30B505462A460B46A6
:1001500012F8010B13F8014B08B1A042F8D01CB102
:10016000002802D06D1CF1E7284630BD421C10F873
:10017000011B0029FBD1801A704710B5002200E056
:10018000521C835C8C5CA34201D1002BF8D1D8B205
:10019000E1B2401A10BD034611F8012B00F8012B03
:1001A000002AF9D11846704730B50B4601460020A9
:1001B0002022012409E021FA02F59D4205D303FA29
:1001C00002F5491B04FA02F52844151EA2F10102AA
:1001D000F1DC30BD064C074D06E0E06840F001035D
:1001E00094E8070098471034AC42F6D3FFF782FF3B
:1001F000A83D0008C83D00080EB54FF47A73009280
:10020000CDE9011302460123A121024800F058FD67
:100210000EBD000098010020FEE70000014800F03C
:1002200077BA000070030020014800F071BA0000A6
:100230002C03002030B590F840500124AC40C56B31
:100240006C60046863604368102B036803D0996096
:100250000068C26030BD9A600068C16030BD704700
:1002600000F066BB10B504460A48844202D021461D
:10027000FFF791FF214608A002F0CAFD0548FFF7ED
:1002800075FF82B2BDE8104064230249064801F0C0
:10029000B7BC0000180000204553503832363620D5
:1002A0003C2025730A000000AC02002010B5052494
:1002B00002F038FD08A0FFF7D5FF07E0C82208A12B
:1002C000084800F09EF908B1012010BD2046641EC8
:1002D000E4B2F3D210BD000041540D0A000000004A
:1002E0004F4B0000580000202DE9F0410D46064616
:1002F00005240DE002F016FD1AA0FFF7B3FF7820E9
:10030000FFF7AEFFC8221BA11B4800F07AF910B915
:10031000641EE4B2EED2F4B101244FF4FA5700BFE8
:1003200002F010FD02F0FEFC13482B46324613A1EA
:10033000403802F07DFD10484038FFF793FF7820E9
:10034000FFF78EFF3A460BA10B4800F05AF920B197
:100350000120BDE8F0810020FBE72046641EE4B2E6
:10036000DED2F6E741542B43574D4F44453D310D06
:100370000A0000004F4B00005800002041542B435E
:10038000574A41503D222573222C222573220D0A03
:100390000000000010B507A0FFF764FF3220FFF750
:1003A0005FFF04A0FFF75EFFBDE810403220FFF7BB
:1003B00057BF00002B2B2B0070B5054602F0B2FC96
:1003C00010A0FFF74FFFC820FFF74AFF0024104896
:1003D00010A1FFF7B9FE002813D0801D014600E0F0
:1003E000401C0278222A08D0421A1A2AF8DB04E0BC
:1003F00011F8012B2A55641CA4B28142F8D30020C5
:10040000285570BD41542B43494653520D0A0000F4
:1004100058000020415049500000000010B502F083
:10042000DFFC02F07FFC09A0FFF71CFF4FF4027015
:10043000FFF716FFFFF73AFF002806D006A0FFF7E8
:1004400011FF7820FFF70CFF012010BD41542B5203
:1004500053540D0A0000000041542B43574D4F44A4
:10046000453D310D0A00000010B50224FFF792FF50
:100470004FF4FA70FFF7F4FE02F054FC35A0FFF7DA
:10048000F1FE08E0C820FFF7EBFEC82235A1364890
:1004900000F0B7F810B9641EE4B2F3D2002C56D0C5
:1004A00002F040FC31A0FFF7DDFE7820FFF7D8FE18
:1004B000FFF7FCFE002849D002F034FC2EA0FFF725
:1004C000D1FE6420FFF7CCFEC82226A1264800F00A
:1004D00098F800283AD002F035FC23482AA22CA133
:1004E000403802F0A5FC02F01DFC1F484038FFF721
:1004F000B9FE6420FFF7B4FEC8221AA11A4800F022
:1005000080F8002822D002F01DFC174825A328A25D
:100510002AA1403802F08CFC02F004FC124840385A
:10052000FFF7A0FE04247820FFF79AFEC8220DA151
:100530000D4800F066F810B9641EE4B2F3D234B18D
:1005400018A21BA124A002F063FC012010BD002012
:1005500010BD000041542B43574D4F44453D320DD3
:100560000A0000004F4B00005800002041542B525D
:1005700053540D0A0000000041542B4349504D557F
:10058000583D310D0A0000003830383000000000BE
:1005900041542B4349505345525645523D312C2529
:1005A000730D0A003132333435363738000000001D
:1005B0004353575F436F6E666967000041542B4396
:1005C000575341503D222573222C222573222C3172
:1005D0002C330D0A00000000436F6E666967536597
:1005E0007276657220736574656420212041502005
:1005F0003A202573205041535320257300000000FA
:10060000704770B506460A20B2FBF0F40D4602E0D2
:100610000A20FFF725FE29463046FFF795FD10B961
:10062000641EA4B2F4D20CB1012070BD002070BDD4
:1006300010B590F821100022022905D00421816311
:1006400080F82020012010BD01680B6823F00E0304
:100650000B6001680B6823F001030B6090F84030D9
:10066000C46B012101FA03F3636080F8211080F864
:100670002020104610BD000010B590F82110002475
:10068000022903D00421816301243DE001680A6846
:1006900022F00E020A6001680A6822F001020A6074
:1006A0001A4A0168914201D1012121E0174A14320E
:1006B000914201D110211BE0144A2832914201D10C
:1006C000891515E0114A3C32914201D189140FE09D
:1006D0000E4A5032914202D14FF4803108E00B4A69
:1006E0006432914202D14FF4801101E04FF08071E9
:1006F000064A083A5160012180F82110002180F853
:100700002010416B01B18847204610BD080002400F
:100710002DE9F05FC16B0C6801680B68D0F840C030
:10072000042202FA0CF2494DDFF824A1494E4A4F47
:10073000DFF828B1DFF828E122422CD05A072AD569
:100740000A68920603D40A6822F004020A6001686B
:10075000A94201D1042219E0514501D1402215E0FE
:10076000B14202D14FF4806210E0B94202D14FF49D
:1007700080420BE0594502D14FF4802206E07145DA
:1007800002D14FF4800201E04FF080622F49083916
:100790004A60C16A3BE04FF0020808FA0CF818EA18
:1007A000040F4FF000094FF0010235D05FEA837863
:1007B00032D50B689B0605D40B6823F00A030B6047
:1007C00080F821200168A94201D1022219E0514597
:1007D00001D1202215E0B14202D14FF4007210E0A5
:1007E000B94202D14FF400520BE0594502D14FF407
:1007F000003206E0714502D14FF4001201E04FF0E3
:100800000072124908394A6080F82090816A0029F4
:100810001AD0BDE8F05F0847082505FA0CF5254217
:1008200012D01B0710D50B6823F00E030B6090F855
:100830004010C36B02FA01F15960826380F82120F5
:1008400080F82090016BE2E7BDE8F09F08000240CD
:100850001C000240300002404400024058000240A8
:100860006C00024030B528B308C81349142219445B
:10087000B1FBF2F18900C163104981630221417724
:100880001A6843F6F0718A43D0E900142143D0E995
:1008900002452C432143046921434469214384696F
:1008A00021431143196000214163012242770177FE
:1008B000084630BD012030BDF8FFFDBF00000240FA
:1008C00070B5044690F82000002501280CD00120C6
:1008D00084F8200094F821600020012E06D084F8CE
:1008E00020000225284670BD022070BD022684F833
:1008F0002160A0632068066826F001060660204695
:10090000FFF798FCE06A00282068016802D041F0F7
:100910000E0106E021F0040101602068016841F049
:100920000A0101602068016841F001010160D9E716
:1009300070B5044600F004F90546601C02D0044876
:100940000078044400F0FCF8401BA042FAD370BDCC
:10095000040000202DE9F84FDFF8B891002409F1D8
:10096000040A0AF1040B23460F270BF1040EC9E019
:100970000125A5402A40AA427DD1674ED1F804C086
:10098000ACEB0608B44532D014DCBCF1030F3AD00E
:1009900009DCBCF1000F2AD0BCF1010F1CD0BCF166
:1009A000020F31D11DE0BCF1110F17D0BCF1120FB5
:1009B0002AD119E0B8F5881F19D006DCB8F5803FB8
:1009C00015D0B8F5801F1FD111E0B8F5001F0ED06B
:1009D000B8F5041F18D10AE0CB6815E0CB681B1DE1
:1009E00012E0CB6808330FE0CB680C330CE08B6867
:1009F0002BB1012B4FF0080303D0456104E0042321
:100A000002E0056100E00023FF2A01D8064601E06C
:100A100000F104064FEA840501D9A5F12005D6F8B6
:100A2000008007FA05FC28EA0C0803FA05F548EAF5
:100A30000508C6F800804D68ED0062D5374DAE69F7
:100A400046F00106AE61AD6924F0030605F001052C
:100A50000095334D06EB050CDCF80850A607360F61
:100A600007FA06F825EA0805DFF8B880404503D103
:100A70004FF0000817E044E0DFF8AC80404502D1B9
:100A80004FF001080FE0DFF8A480404502D14FF09D
:100A9000020808E0DFF89880404502D14FF00308D3
:100AA00001E04FF0040808FA06F848EA0508CCF817
:100AB00008804D68D9F80060ED034D4601D5164316
:100AC00000E096432E604D68DAF80060AD035546AD
:100AD00001D5164300E096432E604D68DBF80060B8
:100AE000ED025D4601D5164300E096432E604D6849
:100AF000DEF80060AD02754601D5164300E096436E
:100B00002E60641C0D682A46E5407FF431AFBDE8D5
:100B1000F88F000000040140000011100010024096
:100B20000000014000080140000C0140001001409D
:100B3000001401400AB1016170470904FBE700009D
:100B400001488068704700000400002070B5040070
:100B50001BD094F83D00002520B984F83C50204675
:100B600000F056FA242084F83D002068016821F046
:100B70000101016000F0A8FB4D4A6168914201D873
:100B80004C4900E04C49884201D2012070BD4B49DC
:100B90002368B0FBF1F15E6826F03F060E435E600D
:100BA0006368934206D94FF4967359434FF47A73AE
:100BB000B1FBF3F12368491C1E6A26F03F0631435E
:100BC00019626168914210D84900401EB0FBF1F2F1
:100BD000521CC2F30B02042A01D2042022E0B0FB13
:100BE000F1F0401CC0F30B001CE0A368F3B301EB71
:100BF000C10202EB0116421EB2FBF6F2521C42F495
:100C00008042120549D093B301EBC10202EB0111FE
:100C1000401EB0FBF1F0401CC0F30B0040F48040DC
:100C200040F400402168CA694CF6FF739A431043B0
:100C3000C861D4E90701084321680A6822F0C002AC
:100C400010430860D4E9030101432068826848F238
:100C5000FF339A4311438160D4E9050108432168B9
:100C6000CA6822F0FF021043C86001E00EE016E0FF
:100C70002068016841F0010101602564202084F8AA
:100C80003D00256384F83E50002070BD01EB410615
:100C9000421EB2FBF6F2521CB3E70120C2E701EBA1
:100CA0004101401EB0FBF1F0401CC0F30B00B7E760
:100CB000A086010080841E0000093D0040420F0014
:100CC0002DE9FF4F83B09A46DDE91197934604461C
:100CD000DDF84080FFF734FF054694F83D002028FA
:100CE0006FD1192301227B492046009501F0E2F8DB
:100CF0000028F5D194F83C00012862D0012084F846
:100D00003C0020680168C90703D1016841F0010176
:100D100001602168086820F400600860222084F8DF
:100D20003D00402084F83E0000262664C4F824805C
:100D3000A4F82A90608D20856748E062CDE90075AF
:100D400053465A462046049900F0D0FF00287DD132
:100D5000208DDFF8888168B1012814D0022820D0C6
:100D60002068016841F48061016020684169806900
:100D70000090A0E02068416981690091016841F418
:100D80000071016097E02068016821F480610160D2
:100D900072B62068416981690091016841F400716F
:100DA0000CE02168086840F40060086072B62068B2
:100DB000416981690091016821F48061016062B636
:100DC00079E084E003284FD801280BD002283B4665
:100DD0004FF000024146204600950ED001F06AF81F
:100DE000A0BB0FE02A463946204601F0E2F868BB76
:100DF00020680069616A087054E001F05BF828BB64
:100E000072B61AE02068016821F48061016072B650
:100E100020680069616A0870606A401C6062208D09
:100E2000401E2085608D401E60853B460022414665
:100E30002046009501F03EF840B92068016841F471
:100E40000071016020680069616A00E012E00870CA
:100E5000606A401C6062218D491E2185618D491E9A
:100E6000618562B621681BE02A463946204601F0BA
:100E7000A0F818B1012007B0BDE8F08F2068006924
:100E8000616A0870606A401C6062218D491E21857C
:100E9000618D491E618521684A69D24352070AD48F
:100EA00009690170606A401C6062208D401E2085C7
:100EB000608D401E6085208D002883D1202084F81D
:100EC0003D0084F83E6084F83C600020D3E70220B7
:100ED000D1E70000020010000000FFFF0400010045
:100EE0002DE9FF4F83B09A46DDE9119793460446FA
:100EF000DDF84080FFF724FE054694F83D002028E9
:100F00007FD11923012240492046009500F0D2FFED
:100F1000002876D194F83C00012872D0012084F892
:100F20003C0020680168C90703D1016841F0010154
:100F300001602068016821F400610160212084F8CB
:100F40003D00402084F83E0000262664C4F824803A
:100F5000A4F82A90608D20852C48E062CDE90075C8
:100F600053465A462046049900F034FF70B930E0E9
:100F70002A463946204601F04FF858B1206C042823
:100F800004D12068016841F400710160012007B0BC
:100F9000BDE8F08F606A216800780861606A401CD3
:100FA0006062218D491E89B22185628D521E628543
:100FB00022685369DB435B070BD469B10078106189
:100FC000606A401C6062208D401E2085608D401E3E
:100FD0006085208D0028CBD12A463946204600F076
:100FE00043FF0028CAD154F83D0B016841F4007159
:100FF0000160202004F81E09E67766770020C6E726
:10100000FFE70220C3E70000020010000000FFFF1E
:1010100010B586B000210091019102910391006802
:101020000F4988421AD10F4CA06940F00800A06116
:10103000A069694600F008000490C02000901220CA
:101040000190032003900848FFF784FCE06940F416
:101050000010E061E06900F40010049006B010BDDB
:101060000054004000100240000C0140024881681A
:10107000027811448160704704000020074810B5D1
:10108000016841F010010160032000F075F80020B4
:1010900000F006F800F024F8002010BD0020024007
:1010A00070B50D4D04464FF47A712878B1FBF0F01D
:1010B0000A490968B1FBF0F000F0ECFA48B9102CCD
:1010C00007D200222146501E00F036F800206C6046
:1010D00070BD012070BD0000040000201000002041
:1010E0000C4808B5816941F001018161816901F015
:1010F00001010091C16941F08051C161C06900F0F6
:10110000805000900448416821F0E06141F0007196
:10111000416008BD0010024000000140002809DBCA
:1011200000F01F02012191404009800000F1E02001
:10113000C0F8001170470000F0B40E4B1B680C465D
:10114000C3F30223C3F10705042D00D90425191D9B
:10115000072901D2002300E0DB1E012606FA05F173
:10116000491E214099409E40761E16403143F0BCF6
:1011700001F072BE0CED00E0064900F007020868BD
:101180004FF6FF03184040EA0220034A104308606C
:10119000704700000CED00E00000FA052DE9F04773
:1011A0000F46050061D0434E306800F00700B8429A
:1011B00009D2306820F0070038433060306800F012
:1011C0000700B84251D128683B4C810712D540072F
:1011D00003D5606840F4E06060602878000703D5BC
:1011E000606840F4605060606068A96820F0F000BA
:1011F000084360602878C00728D06868012810D0AC
:101200002168022810D0890700292EDA616821F0B0
:10121000030101436160FFF793FC804641F2883986
:101220000DE021688903EFE78901EDE7FFF788FC0E
:10123000A0EB0801494502D90320BDE8F0876068AA
:10124000696800F00C00B0EB810FEFD1306800F05E
:101250000700B8420BD9306820F0070038433060EF
:10126000306800F00700B84201D00120E5E7287897
:10127000400705D56068E96820F4E06008436060D5
:101280002878000706D56068296920F4605040EA94
:10129000C100606000F038F86168084AC1F30311CA
:1012A000515CC8400649086006480068FFF7F8FE30
:1012B0000020C2E700200240001002408F3D0008DD
:1012C0001000002008000020044805490068496813
:1012D000044AC1F30221515CC8407047100000204D
:1012E000001002409F3D0008044805490068496815
:1012F000044AC1F3C221515CC8407047100000206D
:10130000001002409F3D000812A185B00FC98DE872
:101310000F0014A0144A006804905168134801F0AB
:101320000C03042B10D0082B0ED1C1F38343C90347
:101330001DF803000AD5516804AAC1F34041515C6D
:101340000A4A5043B0FBF1F005B0704708494843E2
:10135000FAE7000002030405060708090A0B0C0D52
:101360000E0F1010010200000010024000127A005F
:1013700000093D002DE9F84F040070D02078C04DE1
:10138000C00749D06868C0F38100012807D06868A9
:10139000C0F38100022809D16868C00306D5286817
:1013A000800339D560680028E7D035E06068B0F583
:1013B000803F0BD010B1B0F5A02F11D0286820F4D9
:1013C00080302860286820F4802002E0286840F4FB
:1013D00080302860606890B1FFF7B2FB06460AE0F3
:1013E000286840F480202860F0E700BFFFF7A8FBE2
:1013F000801B642873D828688003F7D50CE0FFF7BA
:101400009FFB064605E000BFFFF79AFB801B6428A0
:10141000F0D828688003F7D420789A4E80074FF0E0
:1014200001094FF0000839D5686810F00C0F07D09B
:101430006868C0F38100022809D16868C00306D437
:101440002868800714D52069012808D110E0206998
:10145000B0B1C6F80090FFF773FB074605E00AE15C
:10146000FFF76EFBC01B0228C4D828688007F7D599
:101470002868616920F0F80040EAC10028600DE0AA
:10148000C6F80080FFF75CFB074604E0FFF758FB57
:10149000C01B022823D828688007F7D420780007CB
:1014A0002CD57948A169D9B1C0F80090FFF748FB65
:1014B000074604E0FFF744FBC01B02280FD8686A08
:1014C0008007F7D571484FF4FA510068B0FBF1F08E
:1014D000009000BF0098411E0091FAD20EE080E01B
:1014E000C0F80080FFF72CFB074604E0FFF728FB5D
:1014F000C01B022875D8686A8007F7D42078400797
:1015000060D5E8690027C00008D4E86940F0805041
:10151000E861E869012700F0805000905C480168AC
:10152000C90513D40168834641F480710160FFF757
:1015300007FB824606E000BFFFF702FBA0EB0A00B4
:1015400064284ED8DBF80000C005F5D5E068012816
:101550000AD008B1052813D0286A20F001002862BB
:10156000286A20F0040002E0286A40F001002862A6
:10157000E06841F2883B98B1FFF7E2FA82460BE05F
:10158000286A40F004002862EEE700BFFFF7D8FAAF
:10159000A0EB0A0159455AD8286A8007F6D50CE015
:1015A000FFF7CEFA824605E0FFF7CAFAA0EB0A0180
:1015B00059454CD8286A8007F6D41FB1E86920F055
:1015C0008050E861E06988B36968C1F3810102294C
:1015D00044D00228C6F8608004D0FFF7B1FA044670
:1015E00038E034E0FFF7ACFA074604E0FFF7A8FA6A
:1015F000C01B02282BD828688001F7D4206AB0F5D8
:10160000803F05D16868A16820F400300843686015
:10161000D4E908010843696821F47411084368603B
:10162000C6F86090FFF78CFA044606E025E000BF9C
:10163000FFF786FA001B022809D828688001F7D531
:101640001BE000BFFFF77CFA001B022802D9032031
:10165000BDE8F88F28688001F4D40EE00128F7D0A7
:101660006868226A00F48031914204D1616A00F412
:101670007010884201D00120EAE70020E8E700006E
:10168000001002400000424280044242100000204C
:101690000070004010B5401EB0F1807F01D30120E2
:1016A00010BD4FF0E02460610F21601701F0D4FB02
:1016B0000020A06107202061002010BD70B590F8C7
:1016C0003C20012A19D0012400F83C4F022242702C
:1016D00050F83C3C5A689D6822F070060A684968D8
:1016E000324325F0800529435A6050F83C2C916024
:1016F000447000210170084670BD022070BD10B515
:10170000040003D094F83D0010B107E0012010BDA3
:10171000002084F83C00204600F00CF8022084F8F9
:101720003D00211D206801F01FF9012084F83D00D3
:10173000002010BD08B5124A01681248914207D135
:10174000816941F400618161806900F4006014E006
:10175000B1F1804F0AD00C4A91420FD1C16941F0DA
:101760000201C161C06900F0020006E0C16941F0F8
:101770000101C161C06900F00100009008BD0000D6
:10178000002C0140001002400004004070B50446E7
:1017900090F83C00012817D0012584F83C50022025
:1017A00084F83D002068826822F0770222F47F42AC
:1017B00082600868502830D00DDC20284DD005DC30
:1017C00098B310283BD148E0022070BD302844D0A7
:1017D000402834D139E0602828D0702806D0B0F5F0
:1017E000805F2CD0B0F5005F29D10AE0CB68D1E949
:1017F0000121206801F0EEF82068816841F077014E
:1018000009E0CB68D1E90121206801F0E3F8206804
:10181000816841F48041816011E0CA6849682068AC
:1018200001F0EAF85021206807E016E0CA6849682C
:10183000206801F0F2F86021206801F0D5F884F802
:101840003D50002084F83C0070BDCA68496820689B
:1018500001F0D2F840212068EFE7226801461046E7
:10186000EBE710B504460068416994F83920C1F3EC
:10187000C011212A0BD151B1416921F08001416190
:10188000206B08B1FEF7D4FE204601F036F920683F
:10189000416994F83A20C1F38011222A0BD151B149
:1018A000416921F040014161606B08B1FEF7C0FE63
:1018B000204601F014F9002010BD704770B5026891
:1018C00004461068D168536910F00F0F50D003F030
:1018D000010501F4907635435DD0C20705D0CA05F5
:1018E00003D5E26B42F00102E263420705D5DA0755
:1018F00003D0E26B42F00202E263820705D5DA0709
:1019000003D0E26B42F00402E263020705D5DA0776
:1019100003D0E26B42F00802E263E26B002A33D0AC
:10192000800604D5880602D5204601F0EFF820682D
:101930004069E16BC0F38010090700D428B320464A
:1019400001F0CDF82068416949061AD5416921F0B6
:1019500040014161606BA0B11B494163606BFEF7C0
:101960008BFE002810D0606B416BBDE870400847CB
:10197000830610D58B060ED52046BDE8704001F0D9
:10198000C5B82046FFF799FF70BD2046FFF795FFC9
:101990000020E06370BD030606D50B0604D5204683
:1019A000BDE8704001F05AB94006F3D54806F1D5BC
:1019B000D168204621F04001D160202184F83910FF
:1019C00000F07BF970BD00003F2A000870B50400EC
:1019D00004D094F83900002510B106E0012070BD54
:1019E00084F83850204600F023F8242084F8390089
:1019F0002068C16821F40051C160204601F0D2F88E
:101A00002068016921F4904101612068416921F059
:101A10002A0141612068C16841F40051C160E56359
:101A2000202084F8390084F83A00002070BD0000BE
:101A3000F0B585B000240094019402940394064606
:101A4000036841483F4D022103220715AB424CD1A8
:101A5000836943F480438361836903F4804304937F
:101A6000836943F0040383618069384D00F004000A
:101A700004900802CDE90001039269462846FEF76A
:101A800069FFCDE90074694628460294FEF762FFBB
:101A9000304D2F488027C5E90004C5E902472C6175
:101AA0006C61AC612846EC61FEF7DCFE08B1FEF724
:101AB000A7FD75636E622648274D143801C51020B6
:101AC00091C5254845F810496C61AC61EC61FEF7A1
:101AD000C9FE08B1FEF794FD3563002211462520AA
:101AE0006E62FFF729FB252028E01C4DAB4227D171
:101AF000C36943F48023C361C36903F4802304935F
:101B0000836943F0080383618069CDE9007100F0C7
:101B10000800CDE90320124D69462846FEF71AFF5A
:101B2000E814CDE90004694628460294FEF712FF46
:101B3000002211462720FFF7FFFA2720FFF7EEFAD1
:101B400005B0F0BD0038014000100240000801401F
:101B5000580002402C030020700300200048004081
:101B6000000C0140F8B5044690F83A0020283CD11A
:101B7000C1B3BAB394F83800012836D0012084F8F4
:101B80003800A162A2850025E563222084F83A008E
:101B9000636B17489862636B1648D862636B16488C
:101BA0001863606B134645630846666B21680246FE
:101BB0003046091DFEF784FE2068016841680091E7
:101BC00084F83850C16841F48071C160206841696F
:101BD00041F0010141612068416941F040014161EA
:101BE0000020F8BDFFE70120FBE70220F9E7000035
:101BF000992A0008D52A00084F2A00087047704724
:101C00002DE9F843044690F839001F4616460D4664
:101C1000202850D1A5B19EB194F8380001284AD0AF
:101C2000012084F838004FF00008C4F83C802120DF
:101C300084F83900FEF784FFA6848146E68426E016
:101C40000120BDE8F883E08C401EE084A0684B468C
:101C5000B0F5805F4FF000024FF080012046009702
:101C600003D001F02CF8E8B90DE001F028F8C8B96C
:101C700028882168C0F308004860206908B16D1CFD
:101C800005E0AD1C03E0216815F8010B4860E08C0D
:101C90000028D8D14B46002240212046009701F071
:101CA0000EF808B10320CCE7202084F8390084F82E
:101CB00038800020C5E70220C3E77047FEE70168CF
:101CC0004A69D24352050FD46FF480624A61002101
:101CD00040F8301F202242738173026942F00402EF
:101CE0000261017301207047002070472DE9F84F11
:101CF0000446006889460B9D01689846174641F4E2
:101D0000806101602068016841F480710160009584
:101D10004FF0011A0022514620460A9B00F0CAF8F3
:101D2000002853D1216809F0FE0008610AF1010B77
:101D30002B46594620460A9A00F0F0F8F0BB20687E
:101D40004169806900902A4620460A9900F064F9AA
:101D500040B1206C042839D12068016841F4007139
:101D6000016033E0FEB2B8F1010F09D02168380AF2
:101D700008612A4620460A9900F04EF90028E8D169
:101D8000206806612A4620460A9900F045F9002895
:101D9000DFD12068016841F4807101600095002264
:101DA000514620460A9B00F085F838B9216809F0B1
:101DB000FF0040F0010008612B4600E006E05946B4
:101DC00020460A9A00F0AAF8002800D00120BDE8B9
:101DD000F88F00002DE9F843044600680D46DDE960
:101DE000089701689846164641F4807101604B4699
:101DF00000224FF001112046009700F05BF8E0B997
:101E0000216805F0FE0008613B464A461549204618
:101E100000F084F888B920684169806900903A46EA
:101E20004946204600F0F8F850B1206C042804D14F
:101E30002068016841F4007101600120BDE8F88369
:101E4000F5B2B8F1010F09D02168300A08613A46AD
:101E50004946204600F0E0F80028E6D120680561F8
:101E60000020EBE70200010070B516460D4604465F
:101E70000DE02046FFF723FF08B1012070BD681C6C
:101E800005D0FEF75DFE801BA84207D835B120685B
:101E90004069C0434007ECD4002070BD002044F8E6
:101EA000300F20216173A073216941F0200121616D
:101EB0002073E2E72DE9F0471E4690460D460446A2
:101EC000C1F30747DDF8209008E0701C06D0FEF74C
:101ED00037FEA0EB0900B0420FD876B12068012F81
:101EE00018D0806925EA00000004000C14D00021FD
:101EF0004145EAD00020BDE8F087002044F8300FCB
:101F000020216173A073216941F0200121612073B8
:101F10000120F0E74069E5E70121E9E72DE9F04715
:101F20009A4691460E46044600254FF02008C1F31C
:101F3000074725E020684069C043400514D4206865
:101F4000016841F40071016021686FF480604861AC
:101F5000256384F83D8084F83E50206C40F00400F6
:101F6000206484F83C501FE0B9F1FF3F08D0FEF731
:101F7000E7FDA0EB0A0149450CD8B9F1000F09D0E3
:101F80002068012F13D0806926EA00000004000CAD
:101F90000BD0CFE744F8305F84F80D80A57320693B
:101FA00040F02000206125730120BDE8F0874069E2
:101FB000EAE72DE9F041002590460E460446202729
:101FC00017E04069C043C0060CD454F8301B6FF0D2
:101FD0001000486144F810596777A577206A20629D
:101FE000257717E0FEF7ACFDA0EB0800B04208D85B
:101FF0003EB120684169C9434906E2D40020BDE8EA
:10200000F08144F8305F6773A573206940F02000C9
:10201000206125730120F2E770B516460D4604468F
:102020000DE02046FFF74BFE08B1012070BD681C93
:1020300005D0FEF785FD801BA84207D835B1206882
:102040004069C0430006ECD4002070BD002044F875
:10205000300F20216173A073216941F020012161BB
:102060002073E2E71FB50020019003904FF4704009
:1020700000900120029069460148FEF76BFC1FBDED
:10208000000C014000224FF400510148FEF752BD00
:102090000010014010B509A000F0BAFE00F080FA6F
:1020A000002108230AA2084600F09CFB0823012116
:1020B000BDE8104007A2002000F094BB4D41494EFE
:1020C0005F436F6E6E656374536572766572000070
:1020D0004F4B21003E204D41494E5F436F6E6E6570
:1020E00063745365727665720000000010B500F0ED
:1020F00009F90749A1F12000FEF7F6F818B1BDE88B
:10210000104000F0CBB8BDE81040FFF7C3BF00009F
:102110007801002010B514A000F07AFEFFF7B2FF9E
:1021200000F076FA134800F03EFAFFF79BFFFEF747
:1021300075F968B110A000F06BFE00F035F812A13F
:102140001248FEF71AF850B1BDE81040FFF7CEBFB5
:102150000FA000F05DFEBDE8104000F0F3B8BDE850
:10216000104000F03BB8000048656C6C6F20435392
:10217000572100008F390008455350383236365FFA
:10218000496E6974206F6B00000000005801002048
:10219000455350383236365F496E6974204661695E
:1021A0006C6564202100000010B520210A48FDF76D
:1021B000C0FF094820212030FDF7BBFF064A20213F
:1021C0000020FEF719F8044ABDE810402032202113
:1021D0000846FEF711B800005801002010B5FEF7C0
:1021E00043F9BDE8104000F001B800001FB51849E0
:1021F000012048706846FEF7DFF8694615A000F038
:1022000007FE00F0CDF90021082317A2084600F0D0
:10221000E9FA082318A20121002000F0E3FA0823BC
:1022200019A20321002000F0DDFA08236A460421E8
:10223000002000F0D7FA082314A20521002000F0A6
:10224000D1FA082313A20521282000F0CBFA1FBDE4
:102250000200002043757272656E744950203A2066
:1022600025730A0D0000000055736520434C57414B
:10227000707020746F000000436F6E6E6563742091
:10228000574946490000000049500000504F525441
:102290000000000038303830000000000C4910B554
:1022A0000220487000F07CF90021082309A20846AA
:1022B00000F098FA08230CA20321002000F092FA03
:1022C00008230421BDE810400AA2002000F08ABAC9
:1022D00002000020436F6E6E6563742057494649C3
:1022E000204661696C6564004F4B202D3E2052658D
:1022F0007472790043414E202D3E20436F6E666913
:1023000067000000094910B50320487000F048F943
:102310000021082306A2084600F064FA08230021E1
:10232000BDE8104005A2084600F05CBA020000209B
:10233000436F6E6E656374696E6700005749464966
:102340002E2E2E000C4910B50520487000F028F9FB
:102350000021082309A2084600F044FA08230BA232
:102360000221002000F03EFA08230621BDE81040BB
:102370000BA2002000F036BA02000020212121200B
:102380004552524F52202121210000004553503820
:1023900032363620696E6974206661696C65640046
:1023A000507265737320616E79206B657920746F4C
:1023B00020524553455400002DE9F04786B00024D3
:1023C00032480094019402940394816941F0100111
:1023D0008161816901F010010491816941F020015E
:1023E0008161816901F020010491816941F004015A
:1023F0008161816901F004010491816941F0080162
:1024000081618069DFF8888000F008004FF4005592
:102410000490002229464046FEF78CFBDFF87490BA
:1024200048F21F17002239464846FEF783FBDFF8C3
:1024300068A0002238215046FEF77CFB009502265A
:1024400001250396CDE9015469464046FEF782FA1C
:1024500000970396CDE9015469464846FEF77AFA9B
:102460004FF20700CDE90004694650460294FEF79A
:1024700071FA3820CDE90005CDE90246694650469B
:10248000FEF768FA06B0BDE8F087000000100240D1
:102490000010014000080140000C014010B586B05A
:1024A00000241348009401940294039404940F4967
:1024B000059401604FF47A71C0E901144FF6FF7181
:1024C000C0E9031444618461FFF719F94FF48050A7
:1024D000009069460648FFF759F9049404A9044896
:1024E0000594FFF7EBF806B010BD0000002C01408A
:1024F000EC01002010B586B000241248009401942D
:102500000294039404944FF08041059401604FF4C9
:102510007A71C0E901144FF6FF71C0E903148461B8
:10252000FFF7EDF84FF48050009069460548FFF73B
:102530002DF9049404A903480594FFF7BFF806B0E9
:1025400010BD00002C02002010B586B000241248F7
:10255000009401940294039404940E49059401603C
:102560000121C0E901144FF6FF71C0E90314846131
:10257000FFF7C5F84FF48050009069460648FFF712
:1025800005F9049404A904480594FFF797F806B0E8
:1025900010BD0000000400406C020020FEE7704700
:1025A000002000F019B82DE9F04100260746344616
:1025B0002146002000F090F80025B85D761CB6B2E8
:1025C00000F078F96D1CEDB2802DF6D3641CE4B2F6
:1025D000082CEDD3BDE8F08170B506465FF000042D
:1025E00004F1B000C0B200F053F9002000F050F93F
:1025F000102000F04DF90025304600F05BF96D1C0D
:10260000EDB2802DF8D3641CE4B2082CE8D370BD81
:1026100010B56420FDF724FEAE2000F039F920202B
:1026200000F036F9102000F033F9B02000F030F956
:10263000C82000F02DF9002000F02AF9102000F049
:1026400027F9402000F024F9812000F021F9FF2033
:1026500000F01EF9A12000F01BF9A62000F018F9E7
:10266000A82000F015F93F2000F012F9A42000F096
:102670000FF9D32000F00CF9002000F009F9D52063
:1026800000F006F9F02000F003F9D92000F000F97D
:10269000222000F0FDF8DA2000F0FAF8122000F015
:1026A000F7F8DB2000F0F4F8202000F0F1F88D209E
:1026B00000F0EEF8142000F0EBF8A62000F0E8F8A7
:1026C000AF2000F0E5F80020FFF786FF0021BDE80D
:1026D00010400846AFF3008010B50446B031C8B2D0
:1026E00000F0D6F8102040EA141000F0D1F804F001
:1026F0000F00BDE8104040F0010000F0C9B8000034
:102700002DE9F041203A00240D468046D6B27F28BC
:1027100003D900208D1C8046EDB2102B29460FD026
:10272000FFF7DAFF164906EB460001EB4005285D8E
:1027300000F0C0F8641CE4B2062CF8D3BDE8F081C8
:10274000FFF7CAFF0F4F00BF04EB0610385C00F024
:10275000B1F8641CE4B2082CF6D36D1CE9B2404613
:10276000FFF7BAFF5FF0000404EB06103844007A6C
:1027700000F0A0F8641CE4B2082CF5D3DEE70000FA
:10278000543100087C3300082DE9F041002416463E
:1027900007460D467F2802D900278D1CEDB2294639
:1027A0003846FFF799FFC6EBC6000D4900EB8000E5
:1027B0004618305D00F07EF8641CE4B2102CF8D3AB
:1027C0006D1CE9B23846FFF787FF00243019007C02
:1027D00000F070F8641CE4B2102CF7D3BDE8F0816F
:1027E0006C3900082DE9F0479A461546894604469B
:1027F0008046264F45E0802A14D20D2A10D0534639
:1028000049462046FFF77CFF0834E4B2782C05D90E
:102810005FF0000409EBDA0000F0FF096D1C30E006
:102820004446F7E7BAF1100F2AD100204FEA00061C
:10283000C6EBC60101EB810139442B7891F82020C9
:102840009A420AD191F821106A78914205D1F2B2E8
:1028500049462046FFF798FF0120761CB6B2092EA4
:10286000E6D320B9002249462046FFF78DFF702CA1
:1028700004D909F10200002400F0FF091034E4B289
:10288000AD1C2A78002AB6D1BDE8F0876C39000863
:1028900001B584B00121642204A88DE807000B462D
:1028A000002278210248FEF71BFB05B000BD0000A6
:1028B0009801002001B584B00121642204A88DE8AC
:1028C00007000B46402278210248FEF709FB05B0BD
:1028D00000BD00009801002070477047FEF7C6BB9E
:1028E00030B58FB028216846FDF723FC14210AA8D3
:1028F000FDF71FFC01252804CDE9005000240794B2
:102900006846FEF737FD0F200A90CDE90B540D9471
:1029100000210AA80E94FEF741FC0FB030BD000064
:102920000D48016841F00101016041680B4A114006
:10293000416001680A4A11400160016821F4802168
:102940000160416821F4FE0141604FF41F01816084
:102950000449C00308607047001002400000FFF8FF
:10296000FFFFF6FE08ED00E0F0B50268164B174CCD
:10297000174D4FF08047984205D0B84203D0A0428F
:1029800001D0A84203D122F070064A68324398422F
:1029900005D0B84203D0A04201D0A84203D122F40E
:1029A0004074CA6822434C6922F0800222430260CC
:1029B0008A68C2620A688262984201D10969016329
:1029C00001214161F0BD0000002C014000040040E5
:1029D0000008004010B5846842EA032224F47F44D2
:1029E0000A432243826010BD826822F070020A43CB
:1029F00042F007018160704710B5036A046A24F051
:102A000001040462846924F0F00444EA021423F00F
:102A10000A020A438461026210BD10B5036A23F002
:102A2000100303628369046A23F4704343EA0232A9
:102A300024F0A00343EA01118261016210BD10B5C8
:102A4000406A0021C185C184FEF737FF10BD70B513
:102A5000446A2068406994F83910C0F3C01000251A
:102A6000212904D118B1E584204600F046F82068F9
:102A7000406994F83A10C0F38010222904D118B1AB
:102A8000E585204600F02BF8E06B40F01000E06395
:102A90002046FEF712FF70BD10B50146406A096876
:102AA0000968890613D40021C1850168CA6822F427
:102AB0008072CA6001684A6922F001024A610168B5
:102AC0004A6922F040024A61202180F83A10FFF75B
:102AD00095F810BD10B5406AFFF791F810BD016878
:102AE000CA6822F49072CA6001684A6922F0010241
:102AF0004A61202180F83A1070470168CA6822F0C4
:102B0000C002CA60202180F83910704710B590F8D3
:102B10003A10222901D0022010BD8168B1F5805FF2
:102B200011D00169002901681FD0496801F07F03B5
:102B3000816A4A1C82620B70C18D491E0904090C0E
:102B4000C18518D02BE00269816A002A02685268A8
:102B500005D0D2B20A80816A491C8162ECE7C2F3D7
:102B600008020A80816A891CF7E74A68816A4B1C5F
:102B700083620A70E0E70168CA6822F02002CA6036
:102B80000168CA6822F48072CA6001684A6922F04A
:102B900001024A61202180F83A10FFF72FF8002047
:102BA00010BD00002DE9F041044600680169E268AB
:102BB00021F44051114301612169A0680843616912
:102BC00008432168CA6841F20C639A430243CA6011
:102BD00020684169A26921F44071114341611E4995
:102BE000206864253226884202D1FEF77DFB01E091
:102BF000FEF76AFB00EBC00101EB001160686FF0AB
:102C000018078000B1FBF0F2B2FBF5F2B1FBF0F374
:102C10007A4303EB8202B1FBF0F306EB0212B2FB44
:102C2000F5F2B3FBF5F302F0F00202EB0312B1FB95
:102C3000F0F3B1FBF0F0B0FBF5F0784303EB80006C
:102C400006EB0010B0FBF5F0216800F00F00104417
:102C50008860BDE8F08100000038014090F839102C
:102C6000212901D0022070478168B1F5805F016A97
:102C70000BD04A1C0262026809785160C18C491E5F
:102C80000904090CC1840ED017E009880268C1F359
:102C90000801516001690029016A02D0491C0162E2
:102CA000ECE7891CFBE70168CA6822F08002CA6071
:102CB0000068C16841F04001C160002070472DE903
:102CC000F041984617460E460446069D1DE0681CD6
:102CD0001BD02DB1FDF734FFA0EB0800A84214D99A
:102CE0002068C16821F4D071C1602068416921F079
:102CF00001014161202084F8390084F83A00002065
:102D000084F838000320BDE8F0812068006836EAC6
:102D1000000004D00020B842D9D00020F3E7012001
:102D2000F9E7000010B54FF480710448FDF701FA8F
:102D3000034800214170017010BD000058000020C0
:102D40000000002040210148FDF7F3B918000020E1
:102D500008B500681349884222D113480068016809
:102D6000C1F3001100291BD001684168009101687E
:102D700040680D48FEF775FD0C4800684068414208
:102D80000B484170012101700A490BA000F040F886
:102D9000BDE808404FF4807206490348FEF7E2BEE2
:102DA00008BD000000380140AC0200202C030020C8
:102DB000000000205800002045535038323636209D
:102DC0003E2025730A00000010B50448FFF7C0FF3D
:102DD000BDE810400148FEF771BD0000AC020020C4
:102DE00005480068C16841F01001C1604FF480726D
:102DF00002490148FEF7B6BEAC0200205800002090
:102E00000148FEF75BBD0000EC020020FEE7000079
:102E10000FB4054B10B503A9044A029800F03CF822
:102E200010BC5DF814FB00005D30000814000020A9
:102E30000FB4084B10B504A902AA039800F02CF8AF
:102E4000044602A9002000F003F9204610BC5DF8FA
:102E500014FB0000513000080907090E002804DBAC
:102E600000F1E02080F80014704700F00F0000F13E
:102E7000E02080F8141D704702E008C8121F08C146
:102E8000002AFAD170477047002001E001C1121FEB
:102E9000002AFBD1704700002DE9FF4F8BB09A4606
:102EA0000F460546002606E025280BD052460D9910
:102EB00090476D1C761C28780028F5D10FB030465D
:102EC000BDE8F08F0024A0460122604900E00443E1
:102ED00015F8013F203B02FA03F00842F7D12878A9
:102EE0002E2817D115F8010F44F004042A280ED01B
:102EF0006FF02F022878A0F1300109290AD808EBD9
:102F0000880102EB410100EB01086D1CF2E757F864
:102F1000048B6D1C287869283ED006DC0028CDD0B3
:102F200063280BD0642804D136E0732810D07528AC
:102F30004BD052460D999047761C85E017F8040B4C
:102F40008DF8000000208DF80100E946012003E023
:102F500057F8049B4FF0FF3061074FF0000401D495
:102F60000AE0641C44450DDA8442FADB19F80410C7
:102F70000029F6D106E0641C8442FCDB19F8041039
:102F80000029F8D1264404E019F8010B52460D99A6
:102F90009047641EF8D257E001CF4FF00A0B00288B
:102FA00002DA40422D2102E0210504D52B218DF8C3
:102FB0002410012103E0E10705D02021F7E70DF1FE
:102FC000200908910CE00021F9E701CF4FF00A0B2E
:102FD000F9E75946FDF7E8F801F1300209F8012D4B
:102FE0000028F6D1ADEB090000F1200B600701D4F9
:102FF0004FF00108D84502DDA8EB0B0000E00020EF
:103000008046002406E009A85246005D0D999047CD
:10301000641C761C08988442F5DB04E0302052469C
:103020000D999047761CB8F10001A8F10108F5DC74
:1030300005E019F8010B52460D999047761CBBF13B
:103040000001ABF1010BF4DC6D1C34E70928010031
:103050000A68531C0B6010707047000013B54FF6E0
:10306000FF73012269460248FEF7CAFD00981CBDA5
:10307000EC02002008B5FEF701F8FFF731FCFFF77E
:103080009BF92948416941F00101416140690022F1
:1030900000F00100009011460E20FEF74DF80E20C2
:1030A000FEF73CF8002211460F20FEF745F80F20EE
:1030B000FEF734F81E481D49002401601D49C0E98F
:1030C00001144FF48041C0E9034144618461C4614B
:1030D0000462FDF73BFD194817494FF4E1350160E3
:1030E000C0E901540C26C460C0E904468461C4618F
:1030F000FEF76CFCFFF7D2F9FFF7FCF9FFF724FAB3
:103100000E480F4940300160C0E90154C460C0E975
:1031100004468461C461FEF759FC0AA0FFF778FEFB
:10312000FEF7F8FFFEE700000010024000540040E8
:1031300098010020A086010000380140AC02002068
:1031400000480040537461727420696E6974210AEA
:103150000D0000000000000000000000002F000033
:1031600000000700070000147F147F1400242A7F4A
:103170002A120062640813230036495522500000C9
:103180000503000000001C224100000041221C0039
:103190000014083E08140008083E0808000000A0BB
:1031A00060000008080808080000606000000020B7
:1031B00010080402003E5149453E0000427F400095
:1031C000004261514946002141454B31001814121B
:1031D0007F10002745454539003C4A4949300001E8
:1031E0007109050300364949493600064949291E37
:1031F0000000363600000000563600000008142299
:103200004100001414141414000041221408000298
:103210000151090600324959513E007C1211127CBD
:10322000007F49494936003E41414122007F4141EA
:10323000221C007F49494941007F09090901003EDC
:103240004149497A007F0808087F0000417F41001A
:10325000002040413F01007F08142241007F404090
:103260004040007F020C027F007F0408107F003E78
:103270004141413E007F09090906003E4151215E5E
:10328000007F091929460046494949310001017F5B
:103290000101003F4040403F001F2040201F003FF1
:1032A0004038403F006314081463000708700807A3
:1032B00000615149454300007F41410000552A55B6
:1032C0002A55000041417F00000402010204004031
:1032D0004040404000000102040000205454547853
:1032E000007F484444380038444444200038444473
:1032F000487F00385454541800087E090102001811
:10330000A4A4A47C007F080404780000447D40004D
:10331000004080847D00007F102844000000417F31
:103320004000007C04180478007C0804047800380D
:103330004444443800FC242424180018242418FC95
:10334000007C0804040800485454542000043F44FE
:103350004020003C4040207C001C2040201C003CC1
:103360004030403C004428102844001CA0A0A07C11
:10337000004464544C441414141414140000000049
:10338000000000000000000000000000000000F845
:1033900000000000000000333000000000100C06A8
:1033A000100C0600000000000000000040C0784043
:1033B000C0784000043F04043F040400007088FC0F
:1033C00008300000001820FF211E0000F008F00067
:1033D000E018000000211C031E211E0000F00888D8
:1033E000700000001E2123241927211010160E0042
:1033F000000000000000000000000000000000E0ED
:103400001804020000000007182040000002041801
:10341000E00000000040201807000000404080F05D
:10342000804040000202010F01020200000000F093
:10343000000000000101011F010101000000000067
:103440000000000080B070000000000000000000DC
:103450000000000000010101010101010000000065
:1034600000000000003030000000000000000000FC
:1034700080601804006018060100000000E01008D9
:103480000810E000000F102020100F00001010F8AE
:10349000000000000020203F2020000000700808ED
:1034A000088870000030282422213000003008886D
:1034B000884830000018202020110E000000C02095
:1034C00010F8000000070424243F240000F80888B6
:1034D000880808000019212020110E0000E0108843
:1034E00088180000000F112020110E000038080875
:1034F000C83808000000003F000000000070880885
:1035000008887000001C222121221C0000E0100805
:103510000810E0000000312222110F00000000C05E
:10352000C0000000000000303000000000000080FB
:1035300000000000000080600000000000008040EB
:103540002010080000010204081020004040404004
:103550004040400004040404040404000008102057
:10356000408000000020100804020100007048089C
:103570000808F0000000003036010000C030C82804
:10358000E810E0000718272423140B000000C038BF
:10359000E0000000203C23020227382008F8888839
:1035A00088700000203F202020110E00C030080845
:1035B00008083800071820202010080008F808081C
:1035C0000810E000203F202020100F0008F8888815
:1035D000E8081000203F20202320180008F88888E1
:1035E000E8081000203F200003000000C030080859
:1035F0000838000007182020221E020008F80800E2
:103600000008F808203F210101213F20000808F8A8
:10361000080800000020203F2020000000000808CB
:10362000F8080800C08080807F00000008F888C08B
:1036300028180800203F20012638200008F808003C
:1036400000000000203F20202020300008F8F80073
:10365000F8F80800203F003F003F200008F830C085
:103660000008F808203F200007183F00E010080875
:103670000810E0000F10202020100F0008F80808A4
:103680000808F000203F210101010000E0100808B7
:103690000810E0000F18242438504F0008F88888DC
:1036A00088887000203F2000030C302000708808BC
:1036B000080838000038202121221C00180808F8CA
:1036C000080818000000203F2000000008F808004B
:1036D0000008F808001F202020201F00087888001C
:1036E00000C83808000007380E010000F80800F88C
:1036F0000008F800033C0700073C03000818688036
:103700008068180820302C03032C30200838C800AB
:10371000C83808000000203F2000000010080808FA
:10372000C83808002038262120201800000000FE9C
:10373000020202000000007F40404000000C30C048
:1037400000000000000000010638C0000002020274
:10375000FE000000004040407F0000000000040226
:103760000202040000000000000000000000000051
:103770000000000080808080808080800002020441
:103780000000000000000000000000000000808039
:10379000808000000019242222223F2008F80080A7
:1037A00080000000003F112020110E00000000806A
:1037B00080800000000E11202020110000000080F9
:1037C0008088F800000E112020103F20000080802B
:1037D00080800000001F222222221300008080F03F
:1037E000888888180020203F20200000000080806A
:1037F00080808000006B94949493600008F80080AF
:1038000080800000203F210000203F200080989809
:10381000000000000020203F202000000000008069
:103820009898000000C08080807F000008F80000A9
:1038300080808000203F24022D302000000808F8FE
:10384000000000000020203F2020000080808080B9
:1038500080808000203F20003F20003F808000804B
:1038600080800000203F210000203F200000808059
:1038700080800000001F202020201F00808000800A
:103880008000000080FFA12020110E0000000080B9
:1038900080808000000E112020A0FF8080808000AA
:1038A0008080800020203F212000010000008080D7
:1038B000808080000033242424241900008080E0CC
:1038C000808000000000001F202000008080000099
:1038D00000808000001F202020103F20808080007A
:1038E0000080808000010E3008060100808000808A
:1038F000008080800F300C030C300F0000808000AF
:10390000808080000020312E0E31200080808000D9
:103910000080808080818E70180601000080808089
:10392000808080000021302C222130000000000027
:10393000807C020200000000003F404000000000C8
:10394000FF00000000000000FF0000000002027CF9
:10395000800000000040403F000000000006010120
:10396000020204040000000000000000007048088B
:103970000888700000704808088870000000003057
:103980003700000000000030370000003F3F00001B
:103990000000000000000000000000000000000027
:1039A0000000000000000000000000000000000017
:1039B0000000000000000000000000000000000007
:1039C00000000000000000000000000000000000F7
:1039D00000000000000000000000000000000000E7
:1039E00000000000000000000000000000000000D7
:1039F00000000000000000000000000000000000C7
:103A000000000000000000000000000000000000B6
:103A100000000000000000000000000000000000A6
:103A20000000000000000000000000000000000096
:103A30000000000000000000000000000000000086
:103A40000000000000000000000000000000000076
:103A50000000000000000000000000000000000066
:103A60000000000000000000000000000000000056
:103A70000000000000000000000000000000000046
:103A80000000000000000000000000000000000036
:103A9000000000000000000000F0F8FCFC1C0C0C12
:103AA0000C0C0C0C0C0C0C0000F0F8FCFC1C0C0CAE
:103AB0000C0C1CFCFCF8F00000FCFCFCFC78F0E0BA
:103AC000C08000FCFCFCFC00000C0C0C0C0CFCFC92
:103AD000FC0C0C0C0C0C0000CCCCCCCCCCCCCCCC4E
:103AE000CCDCFCFCF8700000F0F8FCFC1C0C0C0CAE
:103AF0000C1CFCFCF8F00000FCFCFCFC00000000CE
:103B000000000000000000000000000000000000B5
:103B1000000000000000000000070F1F1F1C181805
:103B2000181818181818180000070F1F1F1C18184D
:103B300018181C1F1F0F0700001F1F1F1F00000168
:103B400003070F1F1F1F1F000000000000001F1FA2
:103B50001F00000000000000010101010103030734
:103B60000F1F1D1810100000070F1F1F1C1818181A
:103B7000181C1F1F0F0700001F1F1F1F18181818E1
:103B800018181818180000000000000000000000BD
:103B90000000000000000000000000000000000025
:103BA0000000000000000000000000000000000015
:103BB0000000000000000000000000000000000005
:103BC00000000000000000000000000000000000F5
:103BD00000000000000000000000000000000000E5
:103BE000000000000000000000000000CEDEDBDB73
:103BF000DBDBDBF3730001073FFCE0810F3FF8E004
:103C0000F0FC1F07010000000000000000000000A1
:103C100000000000000000000000000000000000A4
:103C20000000000000000000000000000000000094
:103C30000000000000000000000000008080808084
:103C40008080808080808080808080808080808074
:103C50008080808080808080808080808080808064
:103C60008080808080808080808080808080808054
:103C70008080808080808080808080808080808044
:103C800080808080808080808080808080808000B4
:103C90000000000000000020E000E0200040E00004
:103CA000000000000000C02020C000000000000054
:103CB000000000000000000000C0F8FEFFFFFFFF52
:103CC000FFFFFFFF3FFF7F7F7F7F7FFF3FFFFFFF04
:103CD000FFFF3FFFFFFFFFFFFFBFBF3FBFBFFF3F34
:103CE000BF3FBFBF3FFF3FBFBFBFBF3FFF3FBFBFE4
:103CF000BFBF3FFF3FBFBFBFBFBFFF3FFFFFFFFFD4
:103D00003FFF3FFFFFFFFF3FFFFFFFFFFFFFFF0002
:103D1000000000000000000001060100000407048C
:103D20000000040000000304040300000000000081
:103D30000000000000C0F0FCFFFFFFFFFFFFFFFFDF
:103D4000FFFFFFFFF8FBFBFBFBFBF8FFFAFAFAFAB9
:103D5000FAFAF8FFFFFFFFFFFFFBFBF8FBFBFFF8A2
:103D6000FFF8FFFFF8FFF8FAFAFAFAFAFFF8FFFF98
:103D7000FFFFF8FFF8FBFAFAFAF8FFFAFAFAFAFA94
:103D8000F8FFF8FBFBFBFBF8FFFFFFFFFFFFFF0067
:103D900000000000000000010203040607080900FB
:103DA0000000000102030400C83D000800000020DC
:103DB00018000000782E0008E03D000818000020E0
:103DC000A0070000882E000800000000010000008D
:103DD00010000000000000000024F40000000000BB
:04000005080000ED02
:00000001FF
